:020000040000FA
:10000000D80401208D2100007F61000061210000E3
:1000100061210000612100006121000061210000D8
:10002000000000000000000000000000FD1C0000B7
:10003000612100000000000061210000612100003A
:100040005D1D00005D1D00005D1D00005D1D0000C8
:100050005D1D00005D1D00005D1D00005D1D0000B8
:100060005D1D00005D1D00005D1D00005D1D0000A8
:100070005D1D00005D1D00005D1D00005D1D000098
:100080005D1D00005D1D00005D1D00005D1D000088
:100090005D1D00005D1D00005D1D00005D1D000078
:1000A0005D1D00005D1D00005D1D00005D1D000068
:1000B0005D1D00005D1D00005D1D00005D1D000058
:1000C0005D1D00005D1D00005D1D00005D1D000048
:1000D0005D1D00005D1D00005D1D00005D1D000038
:1000E0005D1D00005D1D00005D1D00005D1D000028
:1000F0005D1D00005D1D00005D1D00005D1D000018
:100100005D1D00005D1D00005D1D00005D1D000007
:100110005D1D00005D1D00005D1D00005D1D0000F7
:100120005D1D00005D1D00005D1D00005D1D0000E7
:100130005D1D00005D1D00005D1D00005D1D0000D7
:100140005D1D000053B94AB9002908BF00281CBF33
:100150004FF0FF314FF0FF3000F00CB8ADF1080C5C
:100160006DE904CE00F008F8DDF804E0DDE90223D3
:1001700004B07047704700BF2DE9F04786468C46B3
:100180000846089E154674461946002B40F0C1806B
:100190008542B2FA82F245D94AB1C2F1200300FA8F
:1001A00002FC954094402EFA03F343EA0C0C4FEA0C
:1001B000154EA8B2230CBCFBFEF80EFB18CC08FBB6
:1001C00000F943EA0C43994528D9EB1808F1FF37A9
:1001D00004D2994502D9A8F102072B44A3EB0903E5
:1001E000A4B2B3FBFEFC0EFB1C330CFB00F044EA94
:1001F0000344A04214D92C190CF1FF3304D2A042BD
:1002000002D9ACF102032C44241A43EA07401EB180
:10021000D440002334607360BDE8F0874746DDE7D3
:100220006346F1E792BB431B01214FEA154EAFB283
:10023000200CB3FBFEFC0EFB1C330CFB07F840EA62
:100240000343984561D9EB180CF1FF3004D298456F
:1002500002D9ACF102002B44A3EB0803A4B2B3FB18
:10026000FEFC0EFB1C330CFB07F744EA0344A742D9
:100270004DD92C190CF1FF3304D2A74202D9ACF1AD
:1002800002032C44E41B43EA0040C0E7C2F1200310
:100290009540944020FA03F12EFA03F34FEA154EED
:1002A0009040AFB20343B1FBFEFC0EFB1C10190CD7
:1002B0000CFB07F841EA0041884522D969180CF186
:1002C000FF3004D2884502D9ACF102002944A1EBE9
:1002D00008019BB2B1FBFEFC0EFB1C110CFB07F7E7
:1002E00043EA01439F420ED9EB180CF1FF3104D2CF
:1002F0009F4202D9ACF102012B44DB1B41EA0041D1
:1003000093E76046E3E76146F7E76046A4E76346A4
:10031000B8E7834206D916B9002108467CE7C6E94A
:1003200000E0F9E7B3FA83F78FB9834201D372454E
:1003300008D8BEEB020460EB030301209C461EB903
:10034000002169E73846FAE7C6E9004CF8E7C7F14B
:10035000200CBB400EFA07F522FA0CF42EFA0CF131
:10036000BA401C4320FA0CF3B8404FEA1449014349
:100370001FFA84FEB3FBF9F809FB18300B0C08FBDD
:100380000EFA43EA00439A4540D9E31808F1FF30DA
:1003900004D29A4502D9A8F102002344A3EB0A0330
:1003A00089B2B3FBF9F809FB183308FB0EFE41EAEA
:1003B00003418E452CD9611808F1FF3304D28E45D4
:1003C00002D9A8F10203214443EA0040A1EB0E0147
:1003D000A0FB02984145CE46434602D306D14D4587
:1003E00004D20138B9EB020E68EB0403002EA7D04B
:1003F000B5EB0E0261EB030101FA0CFC22FA07F3E4
:10040000F9404CEA0303C6E9003199E74046C5E7E5
:100410004346D9E7F0B52F4B2F4A4921C3F80026B0
:100420002E48C3F8042685B0C3F80826C3F80C2666
:10043000C3F81026C3F81426C3F81826C3F81C26E0
:1004400005F012FE05F0B9F901A800F07FFC244B7D
:100450001B68834204D04521224805F005FEFEE7D3
:10046000039A4921204805F0FFFD49211F4805F066
:10047000FBFD4FF48031002002F06AFE044620B1FB
:1004800045211B4805F0F0FDFEE769469DF8080090
:1004900000F032F8009B039D1D44019B1E8900F073
:1004A0005BFFAF1900F03CFF01F0B2FE84F30B8854
:1004B00084F30A88AB5983F3088884F31488BFF364
:1004C0006F8FBFF36F8F7B6898474521094805F010
:1004D000CBFDFEE7008001503546526E50700000A3
:1004E000B8C60020697000008C700000BB7000006E
:1004F000E070000013710000024608B538B10548ED
:100500000023452105F0B0FD6FF0150008BD08601F
:10051000FCE700BF367100001FB50C46014601AA7A
:10052000044805F082FF18B9019B2360029B6360B9
:1005300004B010BD086A00002DE9F04F1E46834B41
:10054000DBB01446DDE96657D3F80080DDF8A0B1D2
:1005500000F0B0FE01227E4B3AA8C3F8002504F05B
:100560005BF835B1002F04DD3A4629463AA805F07C
:1005700076FC4FF00009638927891F44E3681F4414
:100580004F4525D80DA93AA804F0B8F80022704BC1
:10059000C3F80025C3F80025BBF1000F04D02022CA
:1005A00058460DA905F009FE002332460093214666
:1005B0004FF6FF7307A805F001F90546D0B930469C
:1005C0000C9C00F083F984421FD94FF0FF3511E0F5
:1005D000659BA7EB090A9A4528BF9A4649465346A8
:1005E0003046649A05F04EFD054638B10022584B5E
:1005F000C3F8002528465BB0BDE8F08F52466499E9
:100600003AA805F02CFCD144BAE74FF0FF37DFF8E9
:100610004CB1DFF83C910DF1160305AA06A907A815
:1006200005F01AF9041EC0F28F8040F08280BDF8F8
:1006300016A0BAF1100F18D1BDF81450202DC4D156
:100640002B46304606993AAA05F01CFD04460028C0
:100650007AD12A463AA90DA805F076F905463D4B10
:100660001B688342C6D10125D5E7BAF1010F3ED1FF
:10067000BDF81430202BA8D8304606993AAA05F0C8
:1006800001FD044600285FD19DF81430202B029311
:1006900009D8DBF80030304F0393039B9C4205DB05
:1006A0000023C9F800354FF0FF341CE000F002FED3
:1006B000C9F800A51DA803F0AFFF7A681DA812684D
:1006C00057F8081B05F0CBFB15A91DA804F016F878
:1006D0000022C9F80025029A3AA915A805F05DFD87
:1006E00018B9C9F80005274695E70134D5E7BAF1EE
:1006F000220F90D17B1C8ED0DBF80030BB4215DD81
:10070000BDF81430802B3FF660AF304606993AAA08
:1007100005F0B8FC0446B8B9FFB22021BDF814308A
:1007200000973AAA0DA800F01BF880464FF0FF375B
:1007300071E745B1074B1B6843451CBF034BD3F81A
:100740000080454656E70124254653E7E8C40020CB
:1007500000008450B8C60020AC6C0000A86C0000FB
:100760002DE9F04196B017461D469DF87020354B97
:100770000E4653F8321003EBC2035B6801918046CA
:10078000186802AA0144302301A805F0F6FA20B146
:100790004FF0FF3016B0BDE8F081DDE901431C44A5
:1007A000214606AB03AA01A805F00FFB0028EFD1F4
:1007B000049A072AECD12449059805F0EEFC00289C
:1007C000E6D1079A082AE3D12049089805F0E5FC0C
:1007D0000028DDD1214602AA01A805F0E2FA00288E
:1007E000D6D1DDE9013213449C42D1D1412ACFD187
:1007F0003D443023294603AA02A8029705F0BDFA1A
:100800000028C5D1DDE9023213449D42C0D32A46F7
:1008100002A906A805F06CF80028B9D12A4602A959
:100820000EA805F065F80028B2D1202EB0D10199AC
:100830000B78042BACD13346404606AA013100F0B8
:1008400051FDA7E7AC6C0000657100005C71000011
:100850002DE9F041032386B00D466F460026DFF8F0
:100860006880ADF8003017F8010B01A901F038F9E4
:100870000446A0B901981023816802AA103905F036
:1008800001FC0446019805F0FCFB44B910224146E6
:1008900002A805F082FC40B12EB14FF0FF34204693
:1008A00006B0BDE8F0810126DDE7019805F098FE6D
:1008B0000423A0F108012A46019805F0E3FB044651
:1008C000019805F0DEFBEAE74070000007B505F08F
:1008D0004FF86946FFF720FE38B10548452105F07D
:1008E000C3FB002003B05DF804FB0098FAE700BFEB
:1008F0006D7100002DE9F041354B88B006460020AF
:100900000C461D6804F04EFF06A9C0B201F0E8F8DD
:10091000002857D1214604F045FF2C2507A9C0B275
:1009200005FB046501F0DCF8002833D02C27674371
:1009300006EB0708D8F81010069B11F0100138D10B
:100940004FF480720192234A08460092CDE90311C8
:100950002A460291FFF7F0FD05461F4BF259069813
:100960009A420CD1D8F80C20B8F808309B1806D25F
:100970008268934203D2194B1B68AB421FD02CB341
:100980008268002105F0A8FB154A4521154805F0AD
:100990006BFB13E0079805F0BCFB0746079805F0D2
:1009A00070FB6B1EEA1C13F8011FB942BED19342C3
:1009B000F9D11CB13046069905F0BEF8012506981C
:1009C00005F05FFB284608B0BDE8F081064ADCE789
:1009D000E8C40020CCD300203DB8F396B8C6002070
:1009E000B0710000BA710000A871000073B50D4627
:1009F000002104462846CDE9001105F05CF830B32B
:100A0000164E2368B34203D1204601AA04F0E8FF42
:100A1000E36AB34204D16A460121204604F0E0FFB4
:100A2000DDE90032934288BF0193019BAB60019ADC
:100A30002946204600F034FB094B1A68002A03DDE2
:100A40005721084805F010FB002002B070BD05F1E9
:100A50000801FFF7FDFEAB680193E8E73DB8F396A8
:100A60001CD30020E27100002DE9F84F8846914622
:100A70009A460026DFF870B0194C1A4D0B9B9E4227
:100A800001D300200FE00B9B40469F1BB7F5806F02
:100A900028BF4FF48067144A3B4606EB0A0105F075
:100AA000F1FA10B10120BDE8F88F0A993B465A4689
:100AB0004846711805F0FBFA0028F3D1C4F8005637
:100AC0003E44C4F80456C4F80856C4F80C56C4F89A
:100AD0001056C4F81456C4F81856C4F81C56CDE77E
:100AE000008001503546526EBCCE00202DE9FF41FA
:100AF0000E4600218E4B044643628E4B036508462A
:100B000004F050FE04F12001C0B200F0E9FF012121
:100B1000002004F047FE04F14C01C0B200F0E0FFF9
:100B20000546204604F09DFF074668B9002220468E
:100B3000114604F03FFF074600B3002257217E48CC
:100B400005F092FA01238FE0802257217B4805F0BF
:100B50008BFA01239F4284F85830E7D194F858303B
:100B6000042B8DF8073000F28280012B00F2858083
:100B700000F09C80FF2384F8583097E0204600F076
:100B8000A7F90028DED0684604F08CFF69462046AD
:100B900005F027F818B13A4657216948D0E768466A
:100BA00004F089FF80F001016A462046C9B204F0D2
:100BB00001FF02460028C0D1684604F07CFF0746CA
:100BC00060BB69462046FFF711FF9DF8073084F8A7
:100BD0005830033B012B06D8384605F051F810B1C8
:100BE000FF2384F858309DF80730023B022B0BD8C6
:100BF000002005F033F838B1FF2384F85830452140
:100C0000504805F031FAFEE794F85830FF2BF6D043
:100C10006A460021204604F0CDFE93E79DF8078048
:100C2000B8F1010F15D1104602F030FB831E022BE4
:100C300007460BD841462046FFF75CFE424B1B6837
:100C4000984203D0012814BF0527012784F8587063
:100C500084E701212046FFF74DFE3B4B1B6898427D
:100C600014BF05239DF8073084F8583076E7052B2C
:100C700080D1002005F004F813E069462046FFF714
:100C8000B5FE94F858300546DA1E012A0CD800202B
:100C900004F0F6FF054600287FF46CAF002004F056
:100CA000DDFF054610B165E7022BF7D094F8583008
:100CB000FF2B04D14521234805F0D6F9FEE7012B8F
:100CC00010D06A460021204604F074FE054648B163
:100CD000E06C05F0D6F9206A05F0D3F9284604B097
:100CE000BDE8F08100212046FFF704FE0746DFF84B
:100CF0005880D8F8003098420FD110220021684661
:100D000005F066FA206A04F056FD3071236A5B68CC
:100D10003460D8F80050B360DAE7E06C05F0B1F960
:100D2000206A05F0AEF9002D08BF3D46D6E700BFAA
:100D3000BCCA0020BCC60020537200001172000023
:100D40007F720000A9720000B8C6002038B5064DB9
:100D5000044660220021284605F03AFA214628463A
:100D6000FFF7C4FE38BD00BFBCD2002073B51646E5
:100D70001D4643B15B79012B07D121B9204B2A686D
:100D80001B689A4217D8002418E0022BFBD12B686D
:100D9000012B07D91A4A12689342F4D8B1FA81F1AB
:100DA0004909F0E7EFD131B10129ECD129790239B4
:100DB00018BF0121E7E70021436A5C68002004F0C6
:100DC000F1FC01A9C0B200F08BFE30B10124019802
:100DD00005F057F9204602B070BD21462023324667
:100DE000019805F04FF904460028EFD1002DEED010
:100DF0003468044BE41A18BF4FF0FF34E7E700BF34
:100E0000ECC400203DB8F3962DE9F04F07460C46A0
:100E100085B001460020164604F09DFD051E50DBFE
:100E20003846E46D04F0A4FD5FFA84F94FF0000A3F
:100E30004FF0010B4FF0FF346B1E09FB03089DB907
:100E4000BAF1010F03DD4521204805F00DF9631CBF
:100E500006D07F2C2ADC40F2011301343460B380C9
:100E6000284605B0BDE8F08F6B1E00934146012374
:100E700038460DF10F0205F005F9031E019322DB40
:100E8000012238460DF10F0105F0BEFB019B40B178
:100E90005B4501D00AF1010A9B46009DA8EB0908B9
:100EA000CDE7B4F1FF3F08BF2C46F5E70223803CB5
:100EB0007371631004F00104013301343360347141
:100EC000CEE70725CCE70125CAE700BFB5720000D1
:100ED00038B5816A426D914208D0531C8B4205D0CF
:100EE0005721134805F0C0F8002038BD80291CD9CF
:100EF00057211048F6E7446A056D04EBC30405EB7F
:100F0000C30564686D68AC4202D057210A48E9E71E
:100F100001339A42EFD1914205D9436A03EBC203F0
:100F20005B68A342F1D10120DFE700231C46F0E714
:100F3000D8720000107300003F73000000B589B044
:100F4000032004A905F0D2FB9DF81020012A41D00E
:100F5000254B2649032A08BF0B469DF8132049213B
:100F600002929DF81220224801929DF811200092D1
:100F7000204A05F079F8092006A905F0B7FB9DF88D
:100F80001820012A28D0184B1849032A08BF0B46FD
:100F90009DF81B20492102929DF81A2014480192C5
:100FA0009DF819200092144A05F05EF89DF8103063
:100FB000012B13D19DF81230032B0FD19DF818305F
:100FC000012B0BD00D48492105F04EF8022009B045
:100FD0005DF804FB0A4BC0E7094BD9E709484921F2
:100FE00005F042F80020F2E76B7300007473000014
:100FF000887300007A730000C9730000D973000081
:101000006F730000F873000070B54B6814461E4AF9
:1010100003F0FF23934206460D4686B02FD10B689E
:10102000012B2CD1204604A902F0DAF89DF81020FB
:10103000012A26D0154B1649032A08BF0B469DF8F6
:101040001320492102929DF81220124801929DF826
:1010500011200092104A05F007F89DF81030032B7C
:101060000DD12146304604F067FD204605F031FBE6
:101070002046A96804F08FFC204602F091F806B0E3
:1010800070BD064BDBE700BF000100046B7300007E
:101090007473000088730000C97300006F73000050
:1010A0002DE9F04F05460C467D48492189B0174689
:1010B00004F0DAFF6B6A01225E6800233344BB420E
:1010C000114602F10102F9D3764F2046396004F04F
:1010D000F2FC08B3E86D04F039FCAB6A03F1FF38A9
:1010E00000233344834202D208F1FF38F9E73B681A
:1010F000434511D357216C4804F0B6FF3A6808FB0A
:1011000006F3572102FB0662684804F0ADFF012395
:10111000E37109B0BDE8F08F06A9032000F0E0FC00
:1011200007A9092000F0DCFC21462846079AFFF7B2
:101130006BFF6379012B0BD1D7F80080DFF870B11A
:101140003B68DDF81890B8F1000F11D1012323603E
:1011500002234FF0010863713B68DDF818A0984541
:1011600049D9504604F08DFF079804F08AFFD0E774
:10117000226801339B1A98453AD86B6A012A19688C
:1011800053F8380003EBC80353F8083CA0EB010AFE
:10119000A3EB0103049311D1079B0393E368022B94
:1011A00008D04946284604F0C7FC2246494628464E
:1011B00004F0F8FC2846039904F0BEFC3246514680
:1011C000484604F0B7FC049B4A4649462846CDE908
:1011D00000A6FFF749FC2146284604F079FC236865
:1011E0000133236020B1DBF800300133CBF800304D
:1011F00008F1FF38A4E7236898454ED36A6A4FEA9E
:10120000C80352F83810083B04911168DDF81CB08F
:101210000391D1582A6DD0581368A0EB03092379A4
:10122000012B38D1039B3246C91A5046059104F070
:1012300081FC05994B465246009128465946019635
:10124000FFF712FC2146284604F042FC02232371DA
:1012500018B1174A1368013313603246494658469D
:1012600004F068FCDDE9032351469B1A28465A46E0
:10127000CDE90096FFF7F8FB2146284604F028FC4C
:101280002368013323600123237130B1084A1368B6
:101290000133136001E0022BDFD008F101085BE7A6
:1012A0000F740000ECC40020387400006774000064
:1012B0001CD3002070B5094D2B780BB1002070BDF8
:1012C0000126074CC4F8006503F048FA18B92E70DF
:1012D000C4F80005F2E74FF0FF30F0E7CCD400206F
:1012E000000084502DE9F041ACB01F4606460C4684
:1012F0001546FFF7DFFF0123DFF820802A46C8F8F4
:10130000003521463346009703A805F0F5FA00237F
:10131000C8F800352CB0BDE8F08100BF0000845053
:10132000BFF36F8F72B600234FF0FF30094A03F10D
:1013300020010133102B42F82100F8D100234FF097
:10134000FF30044A03F160010133102B42F8210001
:10135000F8D1704700E100E038B501224FF0FF34CA
:1013600000251A4B29465A60C3F84843C3F808437E
:1013700003F580535A60C3F84843C3F80843A3F504
:101380005043C3F800558022C3F80843104804F0C6
:101390001FFF802229460F4804F01AFF0E4B8022BF
:1013A000C3F800552946C3F808430C4804F010FF61
:1013B000802229460A4804F00BFF0A4BC3F808456F
:1013C0004FF05023C3F8084338BD00BF0040015020
:1013D000808000508081005000900050809000502C
:1013E0008091005000700150014B1B68184700BFEE
:1013F000F0C40020014B1860704700BFF0C400200B
:1014000007B50B46002102460091034800F014F98D
:1014100003B05DF804FB00BFE91300002DE9F047BD
:10142000058B04462807904611D4022905F00705CC
:1014300040F0CD80204604F03CFD78B10138218B8E
:10144000042811D8DFE800F0C3106D85950001294C
:101450000CBF45F0100545F02005258388F3118861
:10146000BFF36F8FBDE8F08701F0070AAA4500F0CF
:10147000A6800027B9463E46A368002B00F0BD8039
:1014800041F00801218388F31188BFF36F8FA168B1
:10149000002900F0BB800D68002900F0B7803346BA
:1014A00052462046D1F80480C047002D76D02B68E4
:1014B00029461D46F0E701F007035A1F012A1BD8F1
:1014C000002221F00701062B276889B2C4E9002217
:1014D00009D13B4603E0628B013262831B68002B1B
:1014E000F9D141F002012046218304F0E2FC0028FA
:1014F0007BD041F0200177E0042B0AD121F00701D5
:1015000089B22046218304F0D4FC10B141F02001BF
:101510002183218B01F0070AAA4550D00027B94644
:10152000AAE7236921F0070141F00601062DD3F84F
:10153000009021832DD1B9F1000F40D041F0080176
:10154000218388F31188BFF36F8F20463949C8473C
:1015500029E021F00701236941F0040189B2042D3B
:10156000D3F804902183E6D000274FF0040A3E46CA
:1015700082E721F00701236941F0050189B2052DB9
:10158000D3F808902183D6D000274FF0050A3E46B5
:1015900072E700274FF0060A3E466DE72B4687E7C5
:1015A000B9F1000FD1D14FF02003EFF3118883F38D
:1015B0001288BFF36F8F238B23F008032383258BBF
:1015C000EA062ED525F01003238305F0070566698A
:1015D000218B002EBFF66FAF00232768C4E90033CC
:1015E00021F0070141F001012183218B4FF0000917
:1015F00001F0070AAA457FF43FAF002F9BD041F0CE
:101600000801218388F31188BFF36F8F002FC7D0A3
:101610003D68394633465246204604F076FC2F4654
:10162000F4E7AB067FF51AAF25F02003238305F01E
:101630000705FFE6375F00002DE9F04F82464FF0C7
:1016400000098DB01D46531E01910393039B5878EA
:101650005C1C252819D100204FF0FF381E46444657
:1016600003460236029031780396392955D81F294E
:1016700014D8002900F0EE8101992520D047019966
:101680003078D04709F10209E0E7002800F0E28154
:101690000199D04709F101090394D7E7A1F120028C
:1016A000192AE9D801A757F822F000BF1517000042
:1016B0007916000079160000151700007916000051
:1016C00095170000791600007916000079160000C1
:1016D00079160000E11700001517000079160000C8
:1016E000F5170000A117000079160000AF170000E1
:1016F000CF170000CF170000CF170000CF17000052
:10170000CF170000CF170000CF170000CF17000041
:10171000CF17000008460136A5E7582900F0EB80F6
:10172000A1F16302D7B2172FA6D8172AA4D801A710
:1017300057F822F09D1900001B18000079160000D0
:101740007916000079160000FB1700001B18000036
:101750007916000079160000FB17000079160000CA
:101760007916000079160000D118000079160000E3
:101770007916000071190000791600001B1800008E
:101780007916000079160000D118000079160000C3
:10179000FB17000025200199D04709F1010955E701
:1017A000029A4FF0000802F0FE020292B3E7002C0A
:1017B0000DDAB8F1000F0DDA029A002A00F042812A
:1017C0000A2224EAE47402FB0414303CA3E7B8F1D3
:1017D000000FF5DB0A2202FB0812A2F130089AE79B
:1017E000B8F1000F55F8042B80F22E81002A80F208
:1017F0002D815442022202928DE7682903D1682B81
:1018000006D1482387E76C2902D16C2B00F0208198
:10181000002B7FF431AF0B467DE77A2B06D175297B
:1018200055F8046B14D14FF0000B0CE06C2BF6D084
:101830004C2BF4D1073525F00703752903F1080572
:10184000D3E9006B06D120283BD1844F013C09E04D
:101850004FEAE67BBBF1000FF5DA7642804F6BEB87
:101860004B0B013C0DF12D030593002304933046EF
:1018700059460A220023FEF765FC049B8E46591E3A
:1018800004910599B446303201F8012D5A46BCF155
:101890000A0F72F100020646F3460591E7D2C3F142
:1018A000010B30330DEB0306B8F1000FA6F104066F
:1018B0006DDA029BD9077CD4A8EB0B03A4EB0B04D5
:1018C00013E02B280ABF674F674F04F1FF34C9E7C5
:1018D00070290FD155F8042B0023FAB96FF00403D7
:1018E0004FF0050B614E053C5F4F029A92076FD493
:1018F000A04665E078216C2B03D1002355F8042B1A
:1019000008E04C2BF9D1073525F007031D465B682D
:1019100055F8082B232825D1880621D5544F023CA1
:10192000002601F06001A1F1390B0DF12D0E02F03E
:101930000F01092988BF594430310EF8011D102AC2
:101940004FEA121141EA03714FEA131073F10003D9
:1019500006F1FF3C08D2C6F1010B06F13003A1E706
:10196000444FDCE7404FDBE766460A460346DEE7C6
:1019700055F8046B304604F009FCB8F1000F8346BB
:1019800002DB4045A8BFC3464FF00008364FA8EB26
:101990000B03002B92DDA4EB0804A6E755F8043BEB
:1019A0004FF0010B8DF81830013C4FF0FF3306AEBD
:1019B0009AE7A046EBE7029320200199D047029BCB
:1019C000B8F10108F7D524EAE472013C9144A41A65
:1019D000B84606E0049302920199D047029A049B0C
:1019E0009046424612F8010B0028F3D11A46013AFC
:1019F00015D5002BACBFC7EB03077F425B46013B0D
:101A000015D5BBF1000FA8BF5F4426464F44013EE9
:101A100014D5002CA8BF3F1907EB080916E604935C
:101A2000029230200199D047049B029ADFE702938B
:101A3000019916F8010BD047029BE0E7019920209D
:101A4000D047E4E70122D6E6904664E6144662E613
:101A50004C2360E648460DB0BDE8F08FDC7800000E
:101A60000475000006750000167C00000E7500006D
:101A7000087500000B75000008B54FF02002EFF369
:101A8000118382F31288BFF36F8F00F0AFFB03481E
:101A900004F002FA00F088F8FCE700BF14750000BB
:101AA0004FF02002EFF3118382F31288BFF36F8FA0
:101AB0000121044AC2F8401583F31188BFF36F8FE8
:101AC000002070470090035020B1034B800143F089
:101AD00001031847704700BFA06C000001F04CBC28
:101AE00070B5114B0D461C68DCB1104B1968002312
:101AF0008B4202DB6FF0010070BD224612F8106BC2
:101B0000864202D014460133F2E7E06810B96FF064
:101B10001200F1E704F0D6FE0028F8D000202C6077
:101B2000EAE76FF00C00E7E7F4C40020B86C0000AF
:101B300070B588B005460C46C0B269461646FFF738
:101B4000CFFF00281BDB0098C8B1436822680293CE
:101B500083680195CDE903360023CDE9062305937B
:101B6000C56804F08EFA6DB12846084901AA04F050
:101B700060FC079808B9059B236008B070BD6FF042
:101B80001500FAE76FF01200F7E700BF21610000CF
:101B9000014802F089BA00BF9C6D00000149102283
:101BA0000A60704710ED00E072B6404080F3118883
:101BB000BFF36F8FBFF34F8F30BF62B6BFF36F8F2E
:101BC000704700BF72B6494081F3118820BF80F38F
:101BD000118862B6704700BF37B505460C46C9B1DB
:101BE0008B6810480093D1E90023452104F03CFAAA
:101BF000636945210093D4E903230B4804F034FAC8
:101C00004521E269094804F02FFA4521A2690848F4
:101C100004F02AFA2146284603B0BDE8304002F01D
:101C20007DB800BF4175000075750000A975000002
:101C3000BD75000040B2002807DB01234109034ABB
:101C400000F01F00834042F82130704700E100E0BF
:101C5000054B420953F82220012300F01F0003FA2C
:101C600000F01040704700BF00E100E040B20028E3
:101C700001F10101ACBF00F16040064B4FEA411198
:101C8000C9B2ABBF00F5614000F00F0080F800134F
:101C90001954704714ED00E030BFFFF7FDBF00BFDF
:101CA000144A08B5144B22F07F029A60BFF34F8F9D
:101CB000BFF36F8FD3F8882022F47002C3F8882016
:101CC000D3F8882042F4A002C3F888204FF04042A5
:101CD000C3F83422BFF34F8FBFF36F8F0023E1EEC1
:101CE000103A02F093F802F0D5F800F043FA02F04F
:101CF00099F800BF0000000000ED00E01EF0040FA6
:101D00000CBFEFF30880EFF30980816911F8021C22
:101D10000229FFD001B504F02AFA01BD04460846A5
:101D200011461A460023E1EE103A83F30B880A4B62
:101D30002025A3F5205686F30B8883F3098863B624
:101D40004FF0000383F31188BFF36F8FA04785F333
:101D50001188BFF36F8FFEE7D804012001B5EFF3C0
:101D60000580A0F110004FEAC0000449014409C9F0
:101D70009847BDE80140024908470000206A00007A
:101D8000851D0000704700BF38B5214C4521214812
:101D900004F06AF9A36A9D0103D545211E4804F0A9
:101DA00063F9A36ADC0103D545211C4804F05CF902
:101DB000174DAC6A14F4801404D04521184804F07F
:101DC00053F90224AB6A180303D54521154804F0E2
:101DD0004BF90F4DAB6A590303D54521124804F066
:101DE00043F9AB6A9A0303D54521104804F03CF946
:101DF000074DAB6ADB0303D545210D4804F034F9E8
:101E0000AB6A20466FEA03436FEA1343AB6238BD07
:101E100000ED00E0F07500000D7600002576000072
:101E2000447600007376000096760000C0760000CD
:101E3000DF76000070B5234C06460D46224845214A
:101E400004F012F9A36AD90403D545211F4804F010
:101E50000BF9A36A1A0503D545211D4804F004F9BE
:101E6000184CA36A9B0510D51A48452104F0FCF8CC
:101E7000A26BA36A180408D54521174804F0F4F8AA
:101E80001EB1A36A23F40043A3620E4CA36A590552
:101E900003D54521114804F0E7F8A36ADA050BD50C
:101EA00045210F4804F0E0F80020064A936A43F405
:101EB0007F439362287070BDA36A9B04F4D54521CB
:101EC0000848EFE700ED00E00F7700002A770000F8
:101ED0004077000058770000767700009077000088
:101EE000B0770000CD77000070B5264C06460D4651
:101EF0002548452104F0B8F8A36AD80603D5452142
:101F0000224804F0B1F8A36A190703D545212048F7
:101F100004F0AAF81B4CA36A9A0710D545211D4866
:101F200004F0A2F8626BA36A1B0608D545211A4883
:101F300004F09AF81EB1A36A23F08003A362114C47
:101F4000A36ADE0703D54521144804F08DF8A36A7F
:101F5000980603D54521124804F086F80020094B65
:101F60009A6AD10658BF9A6A9A6A920642BF5A6A1A
:101F700022F400525A629A6A42F0FF029A62287072
:101F800070BD00BF00ED00E0017800001C7800008B
:101F90004077000054780000717800008C780000D1
:101FA000CD7700002DE9F0415C4B05465F680026C7
:101FB0008AB0C7F3080486F31188BFF36F8F02F06D
:101FC0007F43B3F17F4F07D102F00C03082B14D1EC
:101FD0004521534804F048F8002635464FF00008E4
:101FE000E31E8DF80780092B00F28680DFE803F0FE
:101FF0000A797D7584848484848110074CBF0D46E2
:102000000126EBE745214748444C04F02DF88DF8B4
:102010000780E36A9A0705D54521434804F024F870
:10202000002432E0E36A002B02DA45213F48F5E75D
:10203000E36A5B00F4D545213D4804F015F8636977
:10204000AA6943F480736361BFF34F8FBFF36F8F4F
:10205000636932F8022C23F480736361BFF34F8FFE
:10206000BFF36F8F4DF602739A4208D0A36ADBB2BA
:102070002BB301200DF10701FFF736FF2FE04521BB
:102080002A682C4803F0F0FF2C689DF807309BB9B4
:102090002022294602A804F090F8099B002E38D08F
:1020A000C3F3080222B96FEA53236FEA432309936B
:1020B000204602A9FFF790FD0AB0BDE8F081A36AAF
:1020C00013F47F4F05D001200DF10701FFF7B2FE99
:1020D00005E0A36AB3F5803FA2D3FFF755FE04469F
:1020E000D3E700200DF10701C6E700200DF107013D
:1020F000ECE74521104891E7104917F4F87F104AA2
:10210000104808BF0A46A4F11003452103F0ACFFB4
:1021100086E723F4FF7323F00103C8E700ED00E036
:10212000DE7800000E7900002A7900005079000066
:102130006379000087790000A8790000B07800007A
:10214000C5780000D1790000044B5A6942F01002B2
:102150005A615A6942F480625A61704700ED00E0AA
:10216000EFF30880EFF3098101B57246FFF71AFF1C
:1021700001BD00BF002320210348C2180133412BB9
:1021800082F80013F9D1704700E100E0002080F3ED
:102190001488BFF36F8F002080F30A8880F30B88C8
:1021A000FFF79CFC00200E490860BFF34F8F0D48DD
:1021B00080F3088800F03EF8202080F311880A4858
:1021C0004FF40061401880F30988EFF31480022176
:1021D000084380F31488BFF36F8FFFF761FD0000A1
:1021E00094ED00E0D8040120D8D40020BFF34F8F35
:1021F0000549064BCA6802F4E0621343CB60BFF3A3
:102200004F8F00BFFDE700BF00ED00E00400FA05BE
:10221000002318460649D1F89020C2F307229342C2
:1022200000DB7047C1F89830C1F8A0000133F6E731
:1022300000ED00E010B572B6002484F31388FFF7B8
:10224000E7FF23464FF0FF300C4A03F12001013332
:10225000102B42F82100F8D100234FF0FF30074A3D
:1022600003F160010133102B42F82100F8D162B66E
:10227000BFF34F8FBFF36F8F10BD00BF00E100E0D1
:10228000014B1860704700BFF8C40020084B70B5C0
:10229000C31A0D4607499B1004465943402206487D
:1022A00003F0BEFF2B4601462046BDE870401847AC
:1022B00034D30020B76DDBB6A8690000402373B5A6
:1022C0000B4C0093041B0B460D460A49A4106143B6
:1022D0000646094A094803F0CFFF011E05DA3046D9
:1022E0002B4602B0BDE87040184702B070BD00BF79
:1022F00034D30020B76DDBB6E9620000A8690000A6
:1023000070B50022012104460520FFF7AFFC0F48FD
:1023100001F036F90E4B984215D104F079FA26698E
:102320000C49304603F016FE00280BDB012535640E
:102330002469084904F11C0003F00CFE002801DBAD
:102340000020E56470BD6FF00400FBE78D23000002
:102350000000AD0BA46D000001460C23002270B5F7
:102360004B430848C4184033D4E90E561844A263BE
:1023700003F043FF2DB132462B46BDE870400248C2
:10238000184770BD34D30020A869000010B101289F
:1023900004D07047034B1B6C5B0701D1FFF7DCBF18
:1023A000704700BF34D3002008B54FF02003EFF38F
:1023B000118183F31288BFF36F8F124A136843F0C1
:1023C00002001060DA0708D481F31188BFF36F8F21
:1023D000BDE80840012004F029BA4FF05023D3F89B
:1023E0000C24D3F80C34D307EED5074803F005FFCF
:1023F00081F31188BFF36F8FBDE808400020FFF71D
:10240000ABBF00BF84D3002074D30020074BD3E8B8
:10241000EF2F22F00201C3E8E01F0028F7D1D30715
:1024200002D4012004F042BA704700BF84D30020D8
:102430002DE9F843012207463449D1E8EF3FC1E8CE
:10244000E02F0028F9D133B9314932484B60CB60D5
:102450008A6003F092FD7B1E012B2DD8012F07D13E
:102460004FF05023D3F81C3403F00303022B23D086
:1024700004F037FA054608BB274B1B78F3B14FF041
:10248000502302220646C3F808234FF050244FF091
:102490000008DFF88890D4F81834D4F81824D20350
:1024A00016D503F00303022B01D0012F10D13DB349
:1024B00086F31188BFF36F8FBDE8F8834FF02003D8
:1024C000EFF3118683F31288BFF36F8F0125DCE7EA
:1024D0003046FFF777FBD4F81835DBB2012BDAD1A1
:1024E000D4F80421002AD6D0C4F80481D4F80421F9
:1024F0000222C4F818252022C9F88021A360CAE767
:102500004FF050230222C3F80423D5E730D3002034
:1025100020D3002050D30020D1D4002000E100E0DF
:1025200008B5074804F0CEF938B10648FFF7A8FE11
:102530000448FEF75FFF002008BD6FF01200FBE7C4
:10254000D8690000492500000A2838B50446074D1F
:1025500004D1AB680D2128465B689847AB680348F7
:102560005B68E1B29847204638BD00BFD8690000DB
:1025700030B5406801F01F04057BB2F5001F85B03F
:1025800044EA451405D1204601F090FA002005B038
:1025900030BD0025B2F5800FCDE9025514D1B3F15D
:1025A000007F0CBF042305238DF80830002320464C
:1025B000194602AA01F0B0F81C4B984233D1012110
:1025C000204601F02FFAE1E7B3F1C06F20D0B3F15C
:1025D000007F14BF012302238DF808308368CB40AD
:1025E000D907E3D4B2F1A07FE0D1114A04F01F0370
:1025F000803352F82330DB07D8D40DF10705294684
:10260000204601F0BBF90B4B984203D00395CDE770
:102610000323E1E7284601F0FFF9044B9842F5D087
:102620006FF00B00B3E76FF01500B0E70000AD0BE3
:10263000002584500400AD0B10B501F0DDF904460F
:1026400068B901F0B1F9084B98420AD12146074810
:1026500001F08EF9224605210D20FFF707FB00202F
:1026600010BD6FF00400FBE70000AD0B7126000009
:10267000430970B507D10B4B596821B101250C688E
:10268000094E854001B970BD8A682A4002D03046A3
:102690004B6898471CB1236821461C46F2E7234645
:1026A000FAE700BF88D30020C06900002DE9FF4190
:1026B000476801F01F053B7B144645EA43150E466B
:1026C00028460DF1030101F059F914F4403F80460A
:1026D0000BD1284601F012FA3C4B984503D19DF8E6
:1026E000030001F093F900200CE00023284619466E
:1026F00002AACDE9023301F00FF8344B984204D01E
:102700006FF0150004B0BDE8F081804503D19DF85D
:10271000030001F07BF9A30349D540F206332340BF
:10272000B3F5837F19D00CD8062B17D004D8ABB1E2
:10273000022BE5D1042311E0B3F5807FE0D1012322
:102740000CE040F20222934226D0B3F5407F25D020
:10275000B3F5007FD4D1022300E007238DF80430C5
:1027600084F48033C3F30043E0068DF805304CBF9A
:102770000323C4F3401321038DF8063010D5012341
:102780007A68B34093600022284601A901F070F8EE
:102790000E4B9842A7D0B3E70523DFE70323DDE71D
:1027A000620341BF01237A68B340D360EBE7E306DD
:1027B0004FF000034CBF0324C4F340141A462846CC
:1027C00001A98DF8044000F0A7FFE1E70000AD0B80
:1027D000024B0B6001231360704700BF94D30020AD
:1027E000004870472C6E000010B504F067F8034CE9
:1027F000206004F060F86060002010BD94D30020D9
:10280000F8B50E46144604F056F821460546304603
:1028100003F0C7FD374600B3B6FBF5F305FB1363C2
:1028200023B9B4FBF5F305FB134343B1234632460A
:1028300045210C4803F018FC6FF0150002E0A5429A
:1028400001D90020F8BD04F036F80546384601F0FD
:1028500037FA641B2F44F9D1F3E72346324645216A
:102860000148E7E71A7A00003E7A0000F8B50E4604
:102870001946304617461D4603F093FD40B92B46D6
:1028800032464521114803F0EFFB6FF01500F8BD0B
:1028900046EA050414F0030404D02B4632464521D1
:1028A0000B48F0E74DB12B19032BA6EB040006D81B
:1028B000084AD2F80034DB07FBD50020E7E73B1BD2
:1028C000196801F01BFA043CEDE700BF3E7A0000F6
:1028D000607A00000090035070B50D4619462846F6
:1028E00016461C4603F05DFD40B9084823462A46BB
:1028F000452103F0B9FB6FF0150070BD24B12246ED
:102900002946304603F059FC0020F6E73E7A0000E5
:10291000F8B504460D46076903F0E3FF90B92C4B68
:102920001B787BB16426606803F0D2FDE0B901201A
:1029300003F012FF013EF6D1F4E786F31188BFF3EE
:102940006F8FEFE74FF02003EFF3118683F31288C8
:10295000BFF36F8F6068314603F0BAFD90B986F31C
:102960001188BFF36F8FEDE74FF02003EFF311866F
:1029700083F31288BFF36F8F6068314603F0A8FDC0
:102980000028DAD03B691D70626838691368C3F8A3
:1029900044050120C3F848050020C3F82001D3F8FE
:1029A0002051C3F858015268D3F85801D20608D50F
:1029B000082062681268C2F800054FF48002C3F86C
:1029C000042301229A6081F31188BFF36F8FF8BD51
:1029D000D1D40020F0B54B79012B26D0032B21D187
:1029E00010258B79032B1DD1CE790EB1012E19D173
:1029F0000A7912B1022A15D10E220B684468B3F588
:102A0000164F276867D02DD8B3F5165F66D016D855
:102A1000B3F5966F64D00AD8B3F5967F63D0B3F55B
:102A2000167F63D06FF0850054E00025D9E7B3F539
:102A3000166F5ED0B3F5965FF4D1384B3CE0B3F53A
:102A4000E14F59D007D8B3F5615F57D0B3F5964F32
:102A5000E8D1334B30E047F61224A342E2D14FF4E1
:102A6000000329E0B3F5613F4AD013D8B3F5963F90
:102A700049D009D84DF6C024A34246D0B3F5614FE2
:102A8000D0D14FF46B0317E0B3F5E13FCAD14FF05B
:102A9000EB7311E0B3F5612F3AD008D8214CA34273
:102AA00039D0B3F5E12FBDD14FF0E86304E01E4CFF
:102AB000A342B7D14FF080530469C7F82435436867
:102AC00035431B682A43C3F86C25231D03C983E8DB
:102AD00003000020F0BD4FF41D03EDE7134BEBE7BF
:102AE0004FF49E23E8E74FF4A033E5E74FF41C339F
:102AF000E2E74FF41D23DFE70D4BDDE70D4BDBE78E
:102B00004FF06C73D8E70C4BD6E74FF46503D3E76F
:102B10004FF07063D0E74FF08063CDE700B0130053
:102B200000A04E0090D0030040420F00005027004C
:102B300000C0750000F03A0000903A012DE9F7431B
:102B40000021476806693C688046C4F8001530607B
:102B5000D7F80C9001AA484603F021FD051E1EDBA4
:102B6000019BD9F800201979186800F087FA051E32
:102B700015DB4046311DFFF72DFF054678B97B6810
:102B800099071DD506F1180000F03EFD204B984234
:102B900009D045211F4803F067FA6FF00405284665
:102BA00003B0BDE8F083337E43F00043C4F8A031A6
:102BB000C4F88C300123327E9340174AC2F80435A2
:102BC0000823C4F800353B7A53B9C4F81031D4F85F
:102BD00010317369C4F834350123C4F838352360E3
:102BE0007B689A075CBF4FF48073C4F804337B683A
:102BF000DB0644BF4FF48003C4F804333369C4F8E0
:102C000044350023C4F848350123A360E360C6E7D8
:102C10000000AD0BA47A0000007001500123834036
:102C200070B5DC430B4AD2E8EF1F01EA0405C2E8A5
:102C3000E65F002EF7D14FF4803282400648C0F89C
:102C40000823BFF35F8FBFF36F8F0B4214BF0120C8
:102C5000002070BDA0D3002000500150F8B51B49E2
:102C6000044622F07F450868C1E90023A5F500135A
:102C7000101AB3F5400F0FD301F06CF9A30003F164
:102C8000502303F58033D3F8402595421DD14FF4EE
:102C90000002C3F8402512E00D4B1B681A0A1B0600
:102CA0005E190C4B42F10007C3E9006701F052F9CD
:102CB000094A04F5A87352F823309D4205D14FF418
:102CC0008033054AA340C2F84433F8BD20C6002033
:102CD000A4D3002028C6002000500150D9B1012300
:102CE0000D4A8340D2E8EFCF4CEA030CC2E8E1CFB3
:102CF0000029F7D14FF48033084A8340C2F80433E7
:102D0000074BD3E8AF3FC340DB0742BF4FF400128D
:102D1000044BC3F800217047A0D30020005001509D
:102D20009CD3002000E100E00D4B1868010A00066A
:102D3000BFF35F8F0B4BD3F80435181841F1000136
:102D4000B3F5801F0AD2084BD3E90023904271EB00
:102D5000030303D210F1807041F10001704700BFFE
:102D6000A4D300200050015028C600202DE9F74FC1
:102D700014461D460746FFF751FF0090FFF7D4FFAA
:102D8000A04271EB05037AD2444B201A65EB010196
:102D9000984271F100017DD2414B03EB0713D3E957
:102DA00002239D4208BF944254D04FF4803324F054
:102DB0007F4B5E4600214FEA870907F1500809F171
:102DC00050294FEA8808BB4009F580391FFA88F876
:102DD00008F150280193D9F84005324B08F58038A6
:102DE000D3F804A5A0EB0A0020F07F402AF07F4230
:102DF0000128C9F8402504D1132003F078FD0021F3
:102E0000284B0AF1020CA6EB0C0020F07F40B0F535
:102E1000000F88BF6646C8F80010019AD8F8000075
:102E200026F07F40C3F84423C9F84005D3F80405D1
:102E3000824506D0301A023820F07F40B0F5000FEE
:102E40001BD8A6EB0B0626F07F46361945F100038A
:102E500034461D4612490C9801EB0712C2E902459F
:102E600000243B01C8500D9B536038460099FFF782
:102E700035FF204603B0BDE8F08F3046B0E70123B0
:102E8000094ABB40D2E8EF0F1843C2E8E10F00291E
:102E9000E0D0F7E76FF01504E7E700BF010000019D
:102EA00010C60020005001509CD3002073B50024B0
:102EB0004FF0FF304FF0FF31164D174BC5F8084566
:102EC000C3E902014FF4803302264FF40012C5F823
:102ED0000433124B0121C5F804631520C3F8802187
:102EE0002246FEF7C3FE1520FEF7A4FE01230C4A7E
:102EF000AB602B6013600B4B0B4A00932046002302
:102F00000194FFF733FF3046FFF792FA204602B0F4
:102F100070BD00BF0050015010C6002000E100E06D
:102F2000A0D300205D2C0000FFFF7F002DE9F743B8
:102F3000314BD3F8042392070BD5D3F8042142B1C7
:102F40000022C3F804212D4AD3F804311368013359
:102F500013604FF02003EFF3118283F31288BFF365
:102F60006F8F254CD4F80433DB0325D5244BD3E8ED
:102F7000EF1F21F00100C3E8E50F002DF7D111B9D3
:102F8000D4F84031C3B10025C4F84051D4F84031E1
:102F900082F31188BFF36F8FFFF7C6FE4FF0200357
:102FA000EFF3118283F31288BFF36F8F154BD3E9D0
:102FB0000267B042B94106D282F31188BFF36F8F26
:102FC00003B0BDE8F0834FF0FF38D3E900104FF0B5
:102FD000FF391D60C3E902894FF48033C4F84833D8
:102FE00082F31188BFF36F8F0029E9D00090324639
:102FF0003B4628468847E3E700500150A4D3002011
:103000009CD3002010C60020431C13B520D00128FB
:1030100020DDB0F5000F1FDA441EFFF785FE0F4BD1
:10302000D3E90013421AB2F5000F28BF00240C4860
:1030300001322244824228BF024600205218094928
:103040000190009143F10003FFF790FE02B010BD24
:103050000348E1E70024E0E7014CDEE720C600205A
:10306000FFFF7F005D2C000008B5FFF75DFE024BFF
:103070001B68C01A08BD00BF20C600204FF0010C1D
:103080002DE9F041314F00EB8101814202D1002056
:10309000BDE8F081056805F07F03C5F343247F2B6D
:1030A0004FEA154508BF4FF0FF330C2D4BD8DFE832
:1030B00005F0071015181B25184A4A4A4A294700E7
:1030C000C2F80C3503F01F050CFA05F5BD600125AB
:1030D00002E0C2F8143500252E461AE0C2F8083581
:1030E000F0E7C2F81035F6E70025C2F8083503F01E
:1030F0001F060CFA06F6FE6001260AE00125C2F85A
:103100000C35F4E7C2F80835002CE4D1002506247C
:103110002E4650F804EB24020EF40058B8F1000FCC
:103120001CBF00260125CEF3C11E44EA8E0403F025
:103130001F03344344EA4504803347F82340A4E79F
:10314000C2F80C35E0E76FF08500A1E70025845058
:1031500040EA0103C3F30E0330B58BB940F21515F5
:10316000094CC90BC0F3C730994201D1002030BDD2
:10317000C218D2B202F5C07244F822500133F3E70C
:103180006FF01500F3E700BF003000500348452101
:1031900008B502F069FF0020FFF728F8EC7A00007C
:1031A00030B5816885B0103921F00704054602F07A
:1031B000B0FF10220146684603F00AF81022684664
:1031C000064902F0FAFF10236A462146284602F01B
:1031D0006EFF003818BF012005B030BD4070000000
:1031E00030B50D46816887B0102302AA1039044615
:1031F00002F048FF002802DA012007B030BD10229B
:10320000204602A903F000FA00283AD110221E49F4
:1032100002A802F0C2FF00280CBF012302232B707A
:10322000204603F0DDF9012301460DF10702204697
:1032300002F028FF0028DFDB9DF80730204603F06E
:103240000F021B096A702B7101220DF1070103F0B7
:10325000DBF910B96B78042B03D901236B700023C1
:103260002B71A2682046183A22F00702083AA91CDE
:1032700003F0DDF90028BFD12046E91C03F030FA45
:10328000BBE70323CBE700BF407000007FB50546D6
:103290006946032003F02AFA044610B1FF2004B067
:1032A00070BD092002A903F021FA012836D12A466F
:1032B0004921284802F0D8FE274B8DF80C40029394
:1032C00000229DF800509DF80860244C2946207883
:1032D00003F08CF948B33146607803F087F920B3E6
:1032E000A378042B03D09DF8031099421DD1E378F5
:1032F000042B03D09DF80B10994216D12379042B8F
:103300000FD16379022B1BD1154A1648492102F0CF
:10331000ABFE6079831E022BC1D9BFE70028CFD056
:10332000BCE79DF802109942EBD00132032A04F168
:103330000604CBD10C48492102F096FE0120AEE7ED
:10334000032B05D0094A0A49042B08BF0A46DCE7CB
:10335000084ADAE7317B000003010303A47B000085
:10336000137B00007C7B00008F7B0000187B00003B
:103370002A7B00000E7B000008B54FF47F03D3F8D2
:103380003021D3F83431BFF34F8F092A01BF4FF0FA
:1033900050230022C3F81421C3F8182103F0CBF9FD
:1033A00028B10122524BC3F8382AC3F878254FF4CC
:1033B0007F03D3F83021D3F83431BFF34F8F092A7C
:1033C00005D1012B1EBF0122494BC3F8782503F01C
:1033D000B2F918B10E22474BC3F8E42E4FF47F0325
:1033E000D3F83021D3F83431BFF34F8F092A06D1F7
:1033F00000223F4BC3F80C270122C3F810270022FC
:10340000D30003F57F03D3F80013BFF34F8F0131CF
:1034100008D0D3F800130132D3F80433B2F5807F1B
:103420000B60EDD1344BDA69BFF34F8FD10745D52F
:10343000BFF34F8F314BD3F80024012AFBD1C3F8DF
:103440000425D3F80024012AFBD12B4BDA69BFF302
:103450004F8FD2070AD5DA6922F00102DA61BFF391
:103460004F8F264AD2F80034012BFBD1224A136A2F
:10347000BFF34F8F01330CD1136A23F0FF0343F0E6
:1034800020031362BFF34F8F1C4AD2F80034012B84
:10349000FBD10022194BC3F80425D3F80024012ADC
:1034A000FBD1BFF34F8F1649164BCA6802F4E06296
:1034B0001343CB60BFF34F8F00BFFDE71B6ABFF321
:1034C0004F8F0133B4D00E4BD3F88C2042F44062BE
:1034D000C3F88C20D3F8882042F47002C3F8882007
:1034E000BFF34F8FBFF36F8F074B084A1A6008BDB9
:1034F0000040005000A003500080FF0000900350E7
:1035000000ED00E00400FA0534C500200090D0036F
:1035100070B501250268B2FA82F3C3F11F03DBB272
:1035200005FA03F422EA0404D0E8EF6F964204D1CE
:10353000C0E8EC4FBCF1000FF6D1EBD101480B70A5
:1035400070BD00BF0000AD0B10B50368CB40DB07BA
:1035500010D401238B40026843EA0201D0E8EF4F08
:10356000944204D1C0E8EC1FBCF1000FF6D1F2D1B7
:10357000014810BD0148FCE70000AD0B0400AD0B95
:10358000044B1A7922B9012218601A710248704757
:1035900002487047A8D300200000AD0B0C00AD0B13
:1035A0004FF0502310B5D3F8002152B10020C3F8DA
:1035B0000001D3F800210122C3F80823114B1B6836
:1035C00098474FF05023D3F804218AB10022C3F862
:1035D0000421D3F80421D3F81824D3F8181402F0E6
:1035E0000302012A4FF0020103D1C3F818159A60B3
:1035F00010BDC3F80813034B0120BDE810401B6841
:10360000184700BFA8D3002001460148FFF780BF3C
:1036100038C50020064A00F01F0002EB8002D2F8F5
:10362000003223F4403343EA0143C2F800327047CA
:1036300000258450034B083033F81000C0F34010CD
:10364000704700BF3CC5002070B50D4C00F1080369
:1036500034F813300546DA050E4607D5C3F3432385
:1036600004EBC302526854F833309847A3682BB177
:1036700031462846E268BDE87040184770BD00BF7B
:103680003CC5002010B4134A083032F81030D90578
:103690001CD5C3F3432123F4F85322F81030002043
:1036A00002F10E0434F8023F13F4807F03D0C3F319
:1036B000432399420AD001302028F3D1002342F855
:1036C000313005485DF8044BFFF73EBF5DF8044B11
:1036D000704700BF3CC5002090C5002038B50246A9
:1036E000FFF7A8FF0B4C02F1080560B1002134F888
:1036F00015305B0B9B0003F1A04303F55043C3F867
:103700001015C3F810151046FFF7BCFF002324F86E
:10371000153038BD3CC500202DE9F34104461D4657
:1037200009B34E4F00F1080837F81860B30706D503
:10373000FFF780FF18B14A4802B0BDE8F081494860
:1037400004F01F0300EB8300D0F80032097823F067
:103750000F0326F0020643EA810346F00106C0F893
:10376000003227F818609AB13C4E04F1080736F889
:103770001710137811F0020F50680CD00028DAD11E
:1037800036F8172022F01C0242EA830326F817308D
:10379000D5BB3548D0E721F02001C904C90C26F873
:1037A00017100028ECD0032BC5D8526892F800C03F
:1037B0006246920002F1A04202F5504223B9C2F8DB
:1037C0001035C2F81035DBE7D2F8100541EA4C316C
:1037D00020F00300C2F81005D2F8100541F02001D6
:1037E00020F4473020F44070C2F810052002D2F8CF
:1037F00010E500F4F85040EA034040EA0E00C2F839
:10380000100526F81710BBE72046D5E90067FFF73B
:1038100039FF002EBDD0114DD5E90023964201D1CC
:103820009F4218D011480DF10701FFF771FE0E4BB2
:10383000984281D19DF8072005EBC20308345F60F0
:1038400035F8143045F8326043EA422343F480737C
:1038500025F814309DE70022EEE700BF3CC50020AC
:103860000400AD0B002584500000AD0B90C5002076
:10387000F8B5044679B33A4E00F1080736F8175008
:10388000AB0704D4FFF7D6FE08B13648F8BD15F0F3
:103890001C0F4B7822D104F01F00DFF8CCC000F1E0
:1038A000800E5CF82EC091F802E05B002CF4E16C15
:1038B000097843EA8E032CF0070C43EA0C0343EA31
:1038C0000123294943F00103803045F0030541F805
:1038D000203026F8175022B92448D7E7012BDAD137
:1038E000D3E71F4E04F1080736F817008307CCD53D
:1038F00092F800C00023614620F02000890001F109
:10390000A041C00401F55041C00CC1F8103526F8A3
:103910001700C1F810355578002DDDD0D1F81035DD
:10392000927823F4981323F4F853C1F81035D1F8A2
:1039300010E5230203F4F8532D0443EA0E0305F4C3
:10394000403512052B4302F4801240EA4C301343F9
:1039500040F02000C1F8103526F81700BCE700BF82
:103960003CC500200400AD0B002584500000AD0BC9
:10397000014BC3E9020170473CC5002008B502466F
:10398000FFF758FE38B1054B083233F812300448BF
:103990005B0B0B7008BD0348FCE700BF3CC5002073
:1039A0000000AD0B0400AD0B38B50F4C94F8585027
:1039B000BDB94022294604F1100002F009FC0D2097
:1039C000FEF738F9094B0A48C3F87C51D3F87C213B
:1039D0004FF00042C3F80423012384F85830636594
:1039E00038BD0448FCE700BF3CC5002000D00050B3
:1039F0000000AD0B0500AD0B034B93F858000038E9
:103A000018BF0120704700BF3CC500200146014897
:103A1000FFF79ABD8CC5002001460148FFF778BD2D
:103A20008CC50020024610B5FFF704FE1C4B02F1C6
:103A3000080433F81430E0B113F0020419D15B0B21
:103A40009A0002F1A04000F5514002F1A04204604A
:103A500002F550420068D2F8100540F00100C2F8AB
:103A6000100529B1012202FA03F30E4AC2F8043309
:103A700010BDC3F38203042B0ED0052B0ED00A4BCE
:103A8000196902F01F03D94001F00101023110460B
:103A9000BDE81040FFF7BEBD0321F8E70221F6E7BD
:103AA0003CC5002000D000500025845008B50246D7
:103AB000FFF7C0FDC0B10F4B02F1080133F8113020
:103AC000990711D401225B0B9A400B499B0003F12B
:103AD000A043C1F8082303F55043D3F8102522F082
:103AE0000302C3F8102508BD0021BDE808401046B8
:103AF000FFF790BD3CC5002000D0005010B50C4B26
:103B000000F1080233F812300446DB070DD5FFF749
:103B1000CDFF2046FFF7E2FD0222064B04F01F0412
:103B20008034054843F8242010BD0448FCE700BF5A
:103B30003CC50020002584500000AD0B0400AD0BF7
:103B40002DE9F04F002501222C464D4B4D484E49A2
:103B500085B01E6836B1D0F8046316421EBF1C60E3
:103B60001E68154304338B424FEA4202F1D1454FA0
:103B7000D7F87C3193B1454E336A039333624FF0EB
:103B8000010A0DF10C09039870B9C7F87C01D7F848
:103B90007C31336A03933362002BF0D10124002D72
:103BA00056D105B0BDE8F08F90FAA0FBBBFA8BFBB5
:103BB000374A0BF108034FEADB0C32F813100BF015
:103BC000070419F80C300AFA04F423EA040309F88C
:103BD0000C3006EB8B03D3F80042C1F38202C90616
:103BE0009046C4F3014418D5114658460193FFF797
:103BF0002BFD019BE4B2D3F80032C3F301439C4296
:103C000007D100215846FFF705FD21465846FFF72A
:103C100001FD0AFA0BF03062B5E7022C0CD103214A
:103C20005846FFF7F7FC08F00503012BF1D1414698
:103C30005846FFF709FDECE7022158460192FFF7CD
:103C4000E9FC019A032AF2D0032CE2D18A42EDE783
:103C500095FAA5F3B3FA83F304FA03F29B0003F198
:103C6000A04303F55043D3F81005D3F81015C0F363
:103C70000420C1F3014125EA0205FFF7E5FC8EE7C8
:103C800000D1005000D0005020D1005000258450B9
:103C90003CC500200022034BC3F88425C3F804254B
:103CA000704700BF00900350044AD2F80834DB0785
:103CB000FBD50160BFF35F8F704700BF00900350DA
:103CC00008B5C0F30B0383B90222094BC3F884255E
:103CD000C3F804254FF0FF320260D3F80024D20766
:103CE000FBD5FFF7D7FF034808BD0348FCE700BF3B
:103CF000009003500000AD0B0A00AD0B012208B587
:103D0000054BC3F88425C3F80425FFF7CDFFBDE8B4
:103D10000840FFF7BFBF00BF0090035073B50446D3
:103D20000D464FF02003EFF3118683F31288BFF3A3
:103D30006F8F0022042896BF114B124B53F820308E
:103D4000009245210246104802F08EF93DB1EB6920
:103D5000C3F308031BB145210C4802F085F900228A
:103D60000B4B45210B4802F07FF929462046FFF70F
:103D70000DFA86F31188BFF36F8F02B070BD00BFDC
:103D8000A06E0000B67B0000C47B0000F17B000049
:103D9000177C00001F7C00000F4B70B553F82040CB
:103DA000013053F82060A64200D870BDD4E9003538
:103DB000284698476DB138B10028B8BF4042FF2867
:103DC000A8BFFF20EB681870EA68537843F001033E
:103DD00053700834E7E700BFB46E0000012208B555
:103DE000084B03201A70FFF7D7FF00F00FF90420EB
:103DF000FFF7D2FFFCF70EFB034A137B23F001030E
:103E0000137308BDD1D4002030C6002008B5034884
:103E1000034A0021121A02F060FD08BD10C60020FE
:103E2000D4D4002008B50020FFF7B6FF164B03F5E9
:103E3000006282F3088883F30A880025E023134C8C
:103E400084F82230E57725766576A57684F82050CB
:103E5000636A43F4E023636284F82350FEF774F945
:103E6000FDF79CFE4FF0FF33A362E36202F029FDF1
:103E70000120FFF791FF0220FFF78EFF2B462A4615
:103E800029460348FDF74AFFD8D4002000ED00E0A2
:103E9000DD3D000008B50648064A0749121A02F03F
:103EA0001EFDBDE80840054A0549064802F017BD59
:103EB000E8C400200AC60020B87C00000000000012
:103EC000B87C0000E8C40020034B1B680BB9FFF767
:103ED000CBB80020704700BFB0D3002010B50E4B08
:103EE0001C689C4204D1FFF7EFFF6FF0004010BD4B
:103EF000FFF7EAFF002CF8D0D4E904321B1A62EB7A
:103F0000E072B3F1004F72F10001EEDA002AACBFAB
:103F100018460020EBE700BF98C5002030B570B10F
:103F20000B4B5B6898420AD0036843B1D3E9042184
:103F3000D0E90445121941EB0501C3E90421D0E998
:103F4000003213605A600023C0E9003330BD00BF67
:103F500098C500202DE9F84303464FF02002EFF307
:103F6000118482F31288BFF36F8F254FDFF894908E
:103F7000D9F80000DFF890C048453B604FEAE37590
:103F8000DCE9001E0CD058B1D0E90486434575EB3E
:103F9000060217DAB8EB030266EB0506C0E9042651
:103FA00059184EEB0505CCE9001500253D60FFF7DB
:103FB00095FF2946FFF728F884F31188BFF36F8F28
:103FC000BDE8F88318EB01014EEBE8730022CCE961
:103FD00000130023C0E90423FFF7A0FF84F3118836
:103FE000BFF36F8F836898474FF02003EFF311847E
:103FF00083F31288BFF36F8F3B68A3EB0803B7E727
:10400000B0D3002098C50020B0C60020014801F0C0
:1040100043BF00BF897C000010B50A4C23681BB168
:1040200001230020236010BD00F050F80028F7D0D5
:104030000138062803D8044B53F8200010BD03486C
:1040400010BD00BFB4D30020CC6E0000FE8FFFFF78
:10405000BFF34F8F0549064BCA6802F4E062134371
:10406000CB60BFF34F8F00BFFDE700BF00ED00E066
:104070000400FA0530B44FF0FE320025074B084C1F
:1040800008494968C3F80024C3F80424C3F8082485
:10409000C3F80C24C4F8005530BC08470010845005
:1040A00000008450A0C50020024BD0E90012C3E9F3
:1040B00000127047A0C5002038B131B10022014480
:1040C0000346013088421A70FAD1704738B500F0C3
:1040D0002FF820B1032400F063F8204638BD00F02B
:1040E00031F898B900F0ACF898B90F4DD5F82839E7
:1040F0001B0EF02B08D1D5F8242A0C4B9A420AD07B
:10410000072400F017F8E6E70624FAE7042420461F
:1041100038BD0024F5E7012000F092F8044600289D
:10412000F7D1C5F80C0AD8E7001084500000E02051
:104130000020704700207047014BC3F8040A704705
:104140000010845010B5114800F048F800B110BDBF
:104150000F4800F043F80028F9D10E4C204600F03B
:104160003DF80028F3D10C4B0C481C6000F036F8E9
:1041700001460028EBD100F02DF8044608B1204696
:1041800010BD00F03FF82046FAE700BFB4C500209C
:10419000A8C50020B0C50020B8C50020ACC50020CF
:1041A00008B5084800F024F8074800F021F807484F
:1041B00000F01EF8064800F01BF8BDE8084000F0CB
:1041C0000BB800BFB4C50020A8C50020B0C50020B2
:1041D000ACC5002000207047704700BF08B5034BF6
:1041E00002681B6810689847002008BDC4C50020FD
:1041F00008B5034B02685B6810689847002008BD4B
:10420000C4C5002070B5094C094D2069AB689847BA
:1042100018B1084B08485B6898470021074AEB68CB
:1042200011602069BDE87040184700BFD4C5002068
:10423000C4C50020A0C50020E86E0000B8D300204F
:10424000F8B51A4D1A4E0446B26828699047E8B985
:10425000184F3B684CB1A3B1012B19D0013B3B6017
:104260002869F36898470020F8BD43B90121124A34
:10427000C2F800151149D1F81029002AFBD10133E9
:104280003B60F368286998470020F8BD0C48F8BDEA
:104290000A4AD2F81039002BFBD1074A6FF07E4052
:1042A000C2F80035FFF748FF3B68D7E7D4C50020C8
:1042B000C4C50020B8D300200000845000108450F2
:1042C000E98FFFFF10B5044650B1636813F0685FD3
:1042D00005D0064A934202D000236260236010BDDD
:1042E000034B04485B689847EFE700BF2C5F5CA96D
:1042F000A0C50020086F0000C8B143680D4A934272
:1043000013D013F0685F0ED0012350E8002F194638
:1043100040E8001C9CF0000FF7D1012AF5D0BFF354
:104320005F8F0020704704487047044870476FF45F
:10433000E04070472C5F5CA9E98FFFFFEA8FFFFF29
:10434000034680B1426809498A420AD012F0685F88
:1043500005D0BFF35F8F002210461A6070470448F3
:104360007047044870476FF4E04070472C5F5CA9C9
:10437000E98FFFFFEA8FFFFF10B5044620B100234D
:10438000034A2360626010BD0248FFF773FEF6E740
:104390003A00003A306F000030B10268034B044825
:1043A0009A4208BF0020704702487047DD55AABBFB
:1043B0008208F0007108F00038B50D460446B0B12F
:1043C000A0220021043002F0B0FA95B1082229465B
:1043D00004F1640002F0AFFA082205F1200104F1B3
:1043E000840002F0A8FA0020034B236038BD034884
:1043F000FCE70348FAE700BFDD55AABB7108F000EF
:104400008308F0002DE9F74305460E46994611460C
:10441000FFF7C2FF0446002840F08480002E00F021
:104420008580002900F08480B9F1200F40F082805F
:1044300005F14404082205F10408204602F07BFA45
:1044400005F1240708223146404602F074FA06F1CD
:1044500020010822384602F06EFA02A941F8049DB4
:104460004FF4807002F05BFA002865D14FF480733E
:10447000324A0121136093600823314A00F034FB73
:104480000121052308462F4A00F02EFB082342464F
:1044900001211C2000F028FB08233A4601210320BB
:1044A00000F022FB224608230121022000F01CFB21
:1044B0000823254A01211A2000F016FB0523234A70
:1044C00001211B2000F010FB0823214A01211420A8
:1044D00000F00AFB08231F4A0121152000F004FB0D
:1044E000082305F164020121162000F0FDFA0823DB
:1044F00005F184020121172000F0F6FA0823164A7C
:1045000001210B2000F0F0FA00F04AFB044601986C
:1045100000F0D8FA114B002C18BF1C46A4212846E5
:1045200002F005FA204603B0BDE8F0830C4CF9E731
:104530000C4CF7E70C4CF5E7084CEFE79010845073
:10454000946F00000C700000546F0000F86F0000C2
:10455000B86F0000D86F0000746F00008408F0008E
:104560007608F0008008F0008108F000C2690C4B6A
:104570001A60826943F8042C426943F8082C0269E6
:1045800043F80C2CC26843F8102C826843F8142CB2
:10459000426843F8182C026843F81C2C704700BF8F
:1045A0005C1684500C4B1B68C3610C4B1B68836109
:1045B0000B4B1B6843610B4B1B6803610A4B1B6869
:1045C000C3600A4B1B688360094B1B684360094B3F
:1045D0001B680360704700BF5C16845058168450F7
:1045E00054168450501684504C16845048168450EB
:1045F000441684504016845030B10268034B04487E
:104600009A4208BF0020704702487047DD55AABB98
:104610000202F0000002F00038B5044668B1051D42
:104620007021284602F083F928462022044902F02E
:104630007AF90020034B236038BD0348FCE700BF34
:1046400020700000DD55AABB0002F0002DE9F04308
:1046500085B015466F46274B04460E460FCB87E8BC
:104660000F002DB94FF00009484605B0BDE8F083B2
:104670002046FFF7C1FF81460028F5D1231D019395
:10468000636AA3BB236F8BB1C3F14008A84528BF61
:10469000A84604F1300031461844424602F043F97E
:1046A000236F464443442367A5EB0805226F402A45
:1046B00006D104F13001384600F0B4FB0023236733
:1046C00005F03F0835F03F0505D031462A4638460B
:1046D00000F0A8FB2E44B8F1000FC3D0424631468B
:1046E00004F1300002F01FF9C4F87080BCE7DFF875
:1046F0000890B9E7906C00000C02F0002DE9FF4132
:1047000004466F46134B0E460FCB87E80F0020463A
:10471000FFF772FF8046B0B9CEB1636A251D0195DF
:104720003BB90123226F636204F13001384600F087
:1047300079FB2B46043E243453F8042B12BAA342CF
:1047400046F8042FF8D1404604B0BDE8F081DFF808
:104750000880F8E7906C00000502F000084B1B6829
:104760001B0EF02B08D1074B1A68074B9A4205D154
:104770000020064B186070470520704706207047E0
:1047800028198450241A84500000E0200C1A845008
:10479000002230B5134640F6FC754900023802F19C
:1047A000A15404F5823490424FEA840402F10102DC
:1047B000CABF236025605B181E2AF0D1034A13602C
:1047C0000B445360024B034A1A6030BD781084508A
:1047D0008410845020F80F001E4B30B51A4685B067
:1047E000196800910099CC07FAD500F1A15000F5A5
:1047F00082308000016813680193019BD807FAD5C5
:10480000154B164C186820231F3090FBF3F0144D05
:104810000138002810DA00230130400153B14FF075
:104820000042A0F12001134204D1013888424FEA2E
:104830005202F8D105B030BD13680393039BDB0728
:10484000FAD5431823602B680293029B002BE3D117
:104850000138DEE7B4108450AC108450E41084506A
:10486000DC108450F0B51D6885B001F01F040DB94F
:104870001F2C28D1174D2E462F680197019FFF0747
:10488000FAD500F1A15000F582308000006835684B
:104890000395039DED07FAD51F2C00EB611018BF9F
:1048A000C9430D4D18BF01F01F0128600B48006877
:1048B000029002981CBF00FA01F111604FF0000154
:1048C00008BF1060196010684300C00F136005B086
:1048D000F0BD00BFB4108450E4108450DC1084504C
:1048E0000C4B890118603F3020F03F004030586089
:1048F00099600948D9601961596199611C3382B086
:10490000196002680192019AD207FAD5196002B0C3
:10491000704700BF90108450B410845038B5A0F197
:104920002003B3F5426F05462CD88F2826D800F116
:10493000470300F16604DB064FEA541400D001344B
:1049400064013F34A409013411B1A1421AD30C46C9
:104950004FF48050E300B0FBF3F0202828BF202064
:1049600002B110600122084B21461A60FFF710FFC8
:1049700028462146FFF7B4FF002038BD00F11F0490
:104980006409DDE70148F8E71C1884502221F00093
:10499000464BF0B51D4689B01C680194019CE407A4
:1049A000FAD5434B002413449B001A680B181E2BA6
:1049B00088BFC0F11E011F320B1852095343B3F5D3
:1049C000806F84BF4FF48061B1FBF2F1274688BF4E
:1049D000091ADFF8E4E000F1A150DFF8E0C000F5CB
:1049E0008230A14233DC2B680493049BDB07FAD5A9
:1049F000304B1B68296805910599CF07FAD52E4CD5
:104A00002E49236000231E46934203F1010040D14A
:104A10001946002620F0010228488A423CD829681D
:104A200006910699CE07FAD52549096828680790A6
:104A30000798C007FAD5216000210C461F488B4219
:104A40002DD100201D499A422CD809B0F0BD2B6809
:104A50000293029BDB07FAD503199B001B682E68A3
:104A60000396039EF607FAD5CEF800300023934252
:104A700003F1010306D1164623F00103B34204D823
:104A80000134AEE7CCF80070F1E7CCF800700136E5
:104A9000F4E70E600346B7E706600131BDE7046046
:104AA0000131CCE708600133CDE700BFB41084507A
:104AB000240421147C108450D4108450D8108450C5
:104AC0007810845008B540B1202801464FF0070205
:104AD00028BF20210020FFF75BFF0022014B1A6056
:104AE00008BD00BF1C188450F0B5294D85B02C4678
:104AF0002E680096009EF607FAD500F1A15000F549
:104B0000823080000568206801900198C707FAD5B7
:104B10002048214F056002EB8306B24229D10027CD
:104B20005A1C1D4E22F001029A4227D82368029394
:104B3000029BDE07FAD5194B0B449B001B681F3301
:104B40005B099A4213D2216803910399C907FAD5E8
:104B500000211544056008469B1A0F4A8B4210D865
:104B600000205A1C0C4922F001029A420CD805B0D0
:104B7000F0BD52F804CBC7F800C0CEE73760013370
:104B8000D2E710600131E9E708600133EDE700BFCB
:104B9000B4108450D4108450D810845024042114AC
:104BA0002DE9F041814BA0B01D68986820331E4666
:104BB0001A680192019AD707FAD57D4B7D4A1A608F
:104BC00032680292029AD407FAD57B4A1A607B4A6D
:104BD0001446116803910399C907FAD5784A1168F8
:104BE000C1F3402137680497049FFF07FAD5754F3A
:104BF0001F6027680597059FFF07FAD517680029EA
:104C000000F0CF80B90540F1CC803168069106995B
:104C1000CF07FAD56C491960216807910799C90730
:104C2000FAD51168C1F3402137680897089FFF073C
:104C3000FAD5664F1F6027680997099FFF07FAD5C5
:104C40001268002900F0AF80910540F1AC80326815
:104C50000A920A9AD207FAD5564A1A6032680B921B
:104C60000B9AD707FAD55A4A1A6031680C910C99F9
:104C7000CC07FAD55749196031680D910D99C907CC
:104C8000FAD55549196031680E910E99CF07FAD5BA
:104C90005249196031680F910F99CC07FAD55049E4
:104CA0001960504B1E46196810911099C907FAD522
:104CB0003F4C4D4B236033681193119BDB07FAD5B2
:104CC0004A4B236033681293129BDF07FAD5484B97
:104CD00023603A4B9846196813911399C907FAD57E
:104CE000324F386033681493149BDB07FAD5226087
:104CF00033681593159BD807FAD53E4B236033686C
:104D00001693169BD907FAD53B4B2360336817934C
:104D1000179BDA07FAD5394B236033681893189B31
:104D2000DB07FAD5364B236033681993199BD807F4
:104D3000FAD5344B236033681A931A9BD907FAD5F6
:104D4000314B236033681B931B9BDA07FAD52F4B3B
:104D5000236000F01DFC08BBD8F800301C931C9B9E
:104D6000DB07F9D53D6033681D931D9BD907FAD544
:104D7000274B236033681E931E9BDA07FAD5254B19
:104D80002360D8F800301F931F9BDB07F9D50C4B2D
:104D90001B6813F4805F204B08BF184620B0BDE8A5
:104DA000F0811E48FAE71E48F8E700BF90108450D3
:104DB0008010845000100251C01F7229B41084501A
:104DC00088108450C0CF0129C01F0E29C03F002980
:104DD00040010249003184A800001649400108A1A1
:104DE00080440888B0108450C044708880077A419D
:104DF000C0077E4100006A498006164940006E499E
:104E00000002002100822021408220218082242172
:104E100040A161A100C861510308F1000108F1003F
:104E20000208F100324B2DE9F74F80469246994631
:104E300044681A68002AFCD12E4B9B461A68002A47
:104E4000FCD14FF0FF30019100F094FC802000F085
:104E500097FC01230720284A284DA2F59E722B605B
:104E6000C2F83C011360636A254F264E3B60A36A7B
:104E700020463360D8F8003042F8043CD8F80830B7
:104E800098470199D9F80030002BFBD1BAF1000FF7
:104E900020D104221C4B1A60D9F80030002BFBD122
:104EA000DBF800A0BAF1000FFAD1D8F80C30204698
:104EB00098473B6863623368A362144BC3F800A051
:104EC000C3F844A1D9F80030002BFBD12B6003B00C
:104ED000BDE8F08F236A4020012B04BF0B4A13600A
:104EE0000B4B1960C3F804A000F050FCD4E700BFDE
:104EF00010198450201C84500019845018188450B4
:104F0000CC178450D0178450C8178450841684500E
:104F1000281C8450544B10B5194698B01A68019259
:104F2000019AD207FAD5514B514A1A600A68029287
:104F3000029AD407FAD54F4A1A600A680392039A74
:104F4000D007FAD54C4818600A680492049AD20730
:104F5000FAD54A4A1A600A680592059AD407FAD522
:104F6000474A1A600A680692069AD207FAD5454A55
:104F70001A600A680792079AD407FAD5424A1A605B
:104F80000A680892089AD207FAD5404A1A600A6855
:104F90000992099AD407FAD53D4A1A600A680A921A
:104FA0000A9AD207FAD53B4A1A600A680B920B9A02
:104FB000D407FAD5384A1A600A680C920C9AD207BC
:104FC000FAD5364A1A600A680D920D9AD407FAD5B6
:104FD000334A1A600A680E920E9AD207FAD5314AFD
:104FE0001A600A680F920F9AD407FAD52E4A1A60EF
:104FF0000A681092109AD207FAD52C4A1A601A4BF6
:1050000019461C681194119CE407FAD5174B1860D7
:10501000086812901298C407FAD51A600A681392A9
:10502000139AD007FAD5124A1A600A681492149A91
:10503000D207FAD51E4A1A600A681592159AD40743
:10504000FAD51C4A1A600A681692169AD007FAD541
:10505000194A1A600A681792179AD207FAD5174A9E
:105060001A6018B010BD00BFB0108450801084507A
:105070000093652100043190409665900083612182
:1050800000C3302100C3649000816190004610216C
:10509000008111210041442100C320290C4610C881
:1050A0000086312100C3602140C128294096652136
:1050B0000013319040962529594614C840043249BE
:1050C000494B10B5194694B01A680092009AD2075D
:1050D000FAD5464B464A1A600A680192019AD407EB
:1050E000FAD5444A1A600A680292029AD007FAD5A1
:1050F000414818600A680392039AD207FAD53F4ADA
:105100001A600A680492049AD407FAD53C4A1A60D5
:105110000A680592059AD207FAD53A4A1A600A68CF
:105120000692069AD407FAD5374A1A600A68079297
:10513000079AD207FAD5354A1A600A680892089A7F
:10514000D407FAD5324A1A600A680992099AD20736
:10515000FAD5304A1A600A680A920A9AD407FAD530
:105160002D4A1A600A680B920B9AD207FAD52B4A7D
:105170001A600A680C920C9AD407FAD5284A1A6069
:105180000A680D920D9AD207FAD5264A1A600A6863
:105190000E920E9AD407FAD5234A1A600A680F9223
:1051A0000F9AD207FAD5214A1A600F4B19461C688C
:1051B0001094109CE407FAD50C4B18600868119005
:1051C0001198C407FAD51A600A681292129AD00789
:1051D000FAD5174A1A600A681392139AD207FAD5B9
:1051E000144A1A6014B010BDB0108450801084505E
:1051F000809065210004099040966590808061212F
:105200008020082180206490008161900046102158
:10521000008111210041442180202029024610C82C
:10522000008609218020602140212829409665219F
:1052300040962529594614C8504B10B51C4696B0C7
:105240001A680192019AD207FAD54D4B4D4A1A605D
:1052500022680292029AD207FAD54B4A1A604B4A48
:1052600042EA804022680392039AD207FAD5186076
:1052700022680492049AD007FAD5454A1A60A2F52A
:10528000800242EA814122680592059AD207FAD546
:10529000196022680692069AD007FAD53D4A1A602C
:1052A00022680792079AD107FAD53B4A1A6022680A
:1052B0000892089AD207FAD5384A1A6022680992E9
:1052C000099AD007FAD5364A1A6022680A920A9AD1
:1052D000D107FAD5334A1A6022680B920B9AD2078B
:1052E000FAD5314A1A6022680C920C9AD007FAD586
:1052F0002E4A1A6022680D920D9AD107FAD52C4ACF
:105300001A6022680E920E9AD207FAD5294A1A60BC
:1053100022680F920F9AD007FAD5274A1A6021689F
:1053200010911099C907FAD51A60144B1A461968DA
:1053300011911199C807FAD5114B204919601168CC
:1053400012911299C907FAD51D4919601168139174
:105350001399CC07FAD50B49196011681491149967
:10536000C807FAD517491960116815911599C90729
:10537000FAD5154A1A6016B010BD00BFB01084509F
:10538000801084504004419000862929D81001C81B
:10539000401441904014212940146521003440906C
:1053A00000310C90C0400C90C030202940960D90E8
:1053B00000416090031645C800861121004160211C
:1053C000594644C84014459040142D90264870B565
:1053D000054688B004680094009CE607FAD5234C83
:1053E00023480460234C44EA83432C680194019CC5
:1053F000E407FAD50360930143EA824242F0104485
:1054000044F4C0442B680293029BDE07FAD5046083
:105410002B680393039BDB07FAD5174B03608B01C3
:1054200043EA814141F0104343F4C0432E6804969F
:10543000049EF607FAD503602B680593059BDE07EB
:10544000FAD5046041F058412B680693069BDC07AF
:10545000FAD5016042F058422B680793079BDB079F
:10546000FAD5026008B070BDB0108450C021022986
:10547000801084508071009880611890354B8EB0F8
:1054800019461A680092009AD207FAD5324B334A6D
:105490001A600A680192019AD007FAD5304A1A6058
:1054A0000A680292029AD207FAD52E4A1A600A684E
:1054B0000392039AD007FAD52B4A1A600A6804921D
:1054C000049AD207FAD5294A1A600A680592059A01
:1054D000D007FAD5264A1A600A680692069AD207B9
:1054E000FAD5244A1A600A680792079AD007FAD5B3
:1054F000214A1A600A680892089AD207FAD51F4A08
:105500001A600A680992099AD007FAD51C4A1A60EB
:105510000A680A920A9AD207FAD51A4A1A600868E3
:105520000B900B98C007FAD51A600A680C920C9A77
:10553000D007FAD5144A1A600A680D920D9AD2075C
:10554000FAD5124A0E211A6000200D230F220EB048
:10555000FFF73CBFB0108450801084508043012975
:1055600040633921807001298020542100D134907A
:10557000C0403490C0302029C0530D900041389075
:10558000832308C880E3102100413821CF4308C895
:1055900001232DE9F04192B0CDE90333624B1D4662
:1055A0001A680592059AD207FAD5604B604C2360C1
:1055B000604B19461A680692069AD707FAD55E4BD1
:1055C0001A68D60400F1A8802A680792079AD007C3
:1055D000FAD55A4A22600A680892089AD207FAD580
:1055E0001E68C6F30036002E40F098801220FFF7A8
:1055F000F3F807461320FFF7EFF887428CBF12201D
:105600001320FFF7E9F8471EFFF738FF03AB01AAA5
:1056100039461220FFF726F904AB804602AA394624
:105620001320FFF71FF900EB4800022832D00328AF
:105630003ED0012874D12B680993099BDB07FAD56A
:105640003F4B23602B680A930A9BD807FAD53D4B42
:1056500023602B680F930F9BD907FAD53A4B236031
:105660002B681093109BDA07FAD5384B23602B6810
:105670001193119BDB07FAD5354B2360013F25D5EC
:105680001023192218210020FFF7A0FE304612B087
:10569000BDE8F0812B680B930B9BD907FAD52D4BF6
:1056A00023602B680C930C9BDA07FAD52A4BCFE7C3
:1056B0002B680D930D9BDB07FAD5284B23602B68D5
:1056C0000E930E9BD807FAD5254BC1E703AB01AA71
:1056D00039461220FFF7C6F804AB044602AA394641
:1056E0001320FFF7BFF810EB440402D1FFF712FCC0
:1056F000C4E7FFF7E5FC022C08D0032C09D0012CED
:1057000010D117211620FFF797FDB7E715211420B8
:10571000F9E70F210E20F6E7124EB7E7124EB5E774
:10572000124EB3E7124EB1E7B010845000084A5150
:1057300080108450B41084508810845000084E515A
:1057400000065A4940065E4900044241001442499D
:1057500040042E49000652494006564900063A497F
:1057600040063E490608F1000708F1000408F10070
:105770000508F100014B1860704700BF081A8450FB
:10578000014B1860704700BF041A8450034A136825
:105790001842FCD0024A106018467047001A845024
:1057A000081A845029B101290CBF09206FF0150097
:1057B0007047032070470020704770472DE9F7437A
:1057C0000E4617469946044628B94FF0FF38404622
:1057D00003B0BDE8F0830029F7D0002AF5D0CB68EC
:1057E0000D8938461D44042329460DEB030200F0C1
:1057F00049FC80460028E8D146F60812BDF804109E
:105800007389914225D1BDF806109942DDD1042358
:1058100038460DEB0302294400F034FC0028D4D1B3
:1058200046F60713BDF804209A42CED1C4E90067BA
:105830009DF82830A4F80890A3727389BDF806205B
:105840002B44E360738913442B4404356361256161
:10585000BDE7002BE4D0B8E72DE9F3410E4617462B
:105860001D46044620B94FF0FF3002B0BDE8F0817C
:105870000368002BF7D04368002BF4D04FF6FF7875
:10588000D4E904239A4216D223685B8923B1E368E2
:10589000934204BF043323610423216960680DEB44
:1058A000030200F0EFFB0028DDD1A37A2BB1D4E98D
:1058B00003329A4201D30120D7E72389BDF80610AD
:1058C000434501F1040203D0BDF804C09C450BD14F
:1058D00015B1BDF804302B8023690433336039805F
:1058E000236913442361C0E7236913442361C7E795
:1058F00073B50C46064611460223204601AA00F065
:105900003CFA0546E8B9019A1F2A0ED9A2F12001F6
:10591000304620222368194400F04FFC2368019A86
:1059200013442360284602B070BD0146C2F1200234
:10593000304600F04DFC019A2168C2F1200030444D
:10594000EAE76FF00205EDE700F027BC4FF4C07303
:105950005843303070470B78032B06D0092B14BF07
:105960004FF0FF304FF4C07070474FF4C070704775
:1059700010B5044600F0C6FB4FF4C072A368303B7C
:1059800002FB103010BD81680122183921F0070197
:10599000083900F094BE13B50446019100F020FED2
:1059A0000423A0F108010DEB0302204600F05BFE8A
:1059B00002B010BD70B513460E46154600210246D2
:1059C0000446FBF7D3F950B92B460121204604F1D8
:1059D0002C02FBF7CBF910B1002E08BF002070BDE0
:1059E00073B5044600200D461646FFF7DBFE6946F8
:1059F000C0B2FCF775F830BB2C2303FB0544E36809
:105A0000258900981D44042329460DEB030200F06C
:105A100039FBC0B946F60813BDF8042064899A42E0
:105A2000009815D1BDF806309C420CD104236119B1
:105A30000DEB030200F026FB28B946F60713BDF86C
:105A400004209A4207D0009800F01BFB02B070BD02
:105A5000002CF2D0F7E7BDF806102144294431604C
:105A6000F1E737B580250446426A01A90320019574
:105A7000FCF75EF858B9019B0920226DA36201A9C9
:105A80000195FCF755F8054628B1092500E00125E8
:105A9000284603B030BD019B206A636500F032FBED
:105AA000E065F5E70123036003F101234360002370
:105AB000C0E9023370474379012B07D10368012BFA
:105AC00004D10079431E5842584170470020704766
:105AD0007FB506460D46032001A9FCF701F838BB47
